:400000000080002011000000110700001107000008B500F07FFBC04638B51222214B1A6000F038FD204800F0F7FB012000F052FD302000F049FC1D4A1D4B1A601D4C802500
:40004000ED0525601C4A116802230B4313601B4A1B4B1A601B4A136808218B431360FA20C00000F0E3FC184800F024FC80225200164B1A60164A174B1A6080221206164B76
:400080001A608022D202154B1A604022144B1A600820144900F0E4FB082000F0D5FB256038BDC04630001040001BB7000600008004010B400C020B4078002E402D3E0000AD
:4000C0007C002E406CF02E40DC0500000003014040FF00800000014008010B4000010B402C010140ED0B000038B572B600222F4B1A60002410E02E4863001A1952008218EA
:4001000091881B195B001A5AC31858880004104300F078FB0134E4B2022CECD9002412E0234DA3001A195200AA18918AD08A00040843131C128B598B09041143802200F099
:4001400067FB0134E4B2002CEAD01949081C2030403100F02DFB174A174B1A6099231B04164A1360D0210903154A1160154A1360154B197802220A431A70144802783C2164
:400180008A4328390A430270197816220A431A7003220F4B1A600F4A0F4B1A600F4A104B1A60FFF739FF00F01DFB38BD6CF02E40AC4C0000330000EE0000024000500F406F
:4001C00008500F4020500F4000700F4001700F40000004407600DB0008000440B66D1B000802044010B5064C2378002B07D1054B002B02D0044800E000BF0123237010BD3C
:40020000F800002000000000004B000008B5084B002B03D00748084900E000BF07480368002B00D108BD064B002BFBD09847F9E700000000004B0000FC000020C80000203E
:400240000000000038B5051C0C1C012000F0D0FD0020002100F028FE0A4800F0BBFD281C00F040FE0120002100F01EFE201C00F0B1FDFA20C00000F005FB012000F0B8FDEF
:4002800038BDC046044B000010B584B000F0FCFD02F040FF01208C49FFF7D4FF0020002100F002FE002001A9092203F00BF800280AD0864800F08EFD0120002100F0F4FD98
:4002C00001A800F087FD09E0814800F083FD0120002100F0E9FD7F4800F07CFDFA20C00000F0D0FA02207C49FFF7ACFF0020002100F0DAFD794800F06DFD01A801F024F882
:40030000002807D10130002100F0CEFD744800F061FD06E00120002100F0C6FD714800F059FDFA20C00000F0ADFA03206E49FFF789FF0020002100F0B7FD6C4802F094FBE9
:40034000002803D16A4800F045FD09E0694800F041FD0120002100F0A7FD674800F03AFDFA20C00000F08EFA04206449FFF76AFF6348644902F0C0FE041C0020002100F04E
:4003800093FD002C55D0604800F024FD5C4800F021FD0120002100F087FD5C4800F01AFDFA20C00000F06EFA012000F021FD0020002100F079FD201C55490A2203F032F865
:4003C00000280DD0534800F005FD4D4800F002FD0120002100F068FD4F4800F0FBFC09E04E4800F0F7FC0120002100F05DFD4C4800F0F0FCFA20C00000F044FA012000F05B
:40040000F7FC0020002100F04FFD201C02F078FE002803D1434800F0DDFC14E0424800F0D9FC0120002100F03FFD404800F0D2FC09E0304800F0CEFC0120002100F034FDE3
:400440003A4800F0C7FCFA20C00000F01BFA012000F0CEFC05203649FFF7F4FE0020002100F022FD2648334902F05AFA00280AD1314800F0AFFC0120002100F015FD2F48AF
:4004800000F0A8FC09E02E4800F0A4FC0120002100F00AFD254800F09DFCFA20C00000F0F1F9012000F0A4FC0020002100F0FCFC244800F08FFC0120002100F0F5FC224888
:4004C00000F088FCFEE7C0460C4B00001C4B00002C4B00003C4B00004C4B00005C4B00006C4B0000784B0000804B00008C4B0000904B0000A04B0000B44B0000C04B0000B7
:40050000CC000020C84B0000CC4B0000D44B0000E04B0000EC4B0000FC4B00000C4C00001C4C00002C4C00003C4C0000244C00004C4C0000544C0000644C0000704C000009
:40054000804C0000904C0000A04C000008B5002812D1134B1B78002B20D10122104B1A7000F06EFD7720002100F076FDFF2000F059FD00F047FD11E0094B1B78002B0DD11A
:400580000122074B1A7000F05BFD7720002100F063FDFF2000F046FD00F034FD08BDC0461401002008B5002809D1081C00F0E6FC00F0D8FCC307FBD500F0ECFC08E0081C82
:4005C00000F0DCFC00F0CEFCC307FBD500F0E2FC08BDC04608B5002802D100F04DFD02E0002000F049FD08BD08B5002803D1013000F042FD02E0012000F03EFD08BDC04645
:400600000020704770B5061C0D1C9023FF33994204D9FA231B01994203D804E0C8256D0001E0FA252D01690089B20E4804F0AEF884B2002E0AD100F003FD601E80B20021E7
:4006400000F00AFDFF2000F0EDFC09E000F0F8FC601E80B2002100F0FFFCFF2000F0E2FC281C70BD80BB0000032807D80B4B99420CD80B4B9A420BD800200EE0074B9942FA
:4006800008D8074B9A4207D8002006E0002004E0012002E0002000E001207047E40C0000E30C000008B5FFF751FF022008BDC046F8B5071C0D1C141C6E1C381CFF21FFF77C
:4006C00071FF2870013C351C002CF5D1F8BDC04670B5061C141C4D1C0978301CFFF762FF013C291C002CF6D170BDC04608B504488021490102F0A0F9024802F0DFFD08BDAF
:400700001801002024510000842080037047C046FEE7C04670B50F4E0F4D13E029686B68AC68002202E001C901C30432A242FAD1E868002202E0002102C304328242FAD17D
:400740001035013E002EE9D104F0A2F9FFF79CFDFEE7C046010000001C52000008B50F4A136801218B43136000230AE0032B03D89A000B49505800E00A4899000A4A8850FE
:4007800001332F2BF2D9FFF7AFFC0022074B1A60024A116801230B43136008BD00001040000000001107000000000020C0000020F0B50025002711E0BB00C658F3B2FF22F9
:4007C000964308E06A008A181478A419527822700135013BDBB2002BF4D10137072FEBD9F0BDC0460323044A1360044A13600022034B1A607047C046300030403000314023
:40080000000E3F4008B50A1C002104F070F908BD08B504F063F908BD0230800803D00138FDD1C046C046C0467047EFF3108072B6704780F310887047024B1B68012018407A
:400840007047C0460C002E401F2318401E3B8340181C014B1860704700E100E001BE704738B5041C0D1C1F2802D90020FFF7F6FFA400034B9C4664442068256038BDC046BE
:400880004000002010B5041C06E0084B1868FFF7C3FF074B9C46644480231B029C42F4D8024B58686043FFF7B7FF10BDD80000200080FFFF08B5034B1B7A5843FFF7ACFFC1
:4008C00008BDC046D8000020F0B557464E46C0B483B0041CFFF7A9FF0190E71E2D2F74D83F4B1B78DBB2A34208D33E4B1B78DBB29A463D4B1B78DBB2994631E03B4B1B7818
:40090000DBB2A34208D33A4B1B78DBB29A46394B1B78DBB2994623E0374B1B78DBB2A34208D3364B1B78DBB29A46354B1B78DBB2994615E0334B1B78DBB2A34208D3324B2D
:400940001B78DBB29A46314B1B78DBB2994607E02F4B1B78DBB29A462E4B1B78DBB299462D4BDE5D2F2E09D92A2C07D919222B4B1A600520FFF750FF192503E0274B1D684E
:400980003F231D40AE4206D2234BDA5D234B1A600520FFF741FF1F4B9C4664442378DBB21F4A13601F4B52461A601F4B4A461A600520FFF77FFFAE420AD9174BDA5D174B79
:4009C0001A600520FFF728FF02E00020FFF746FF0198FFF72EFF03B00CBC91469A46F0BD40F3FF0F41F3FF0F42F3FF0F43F3FF0F44F3FF0F45F3FF0F46F3FF0F47F3FF0F3F
:400A000048F3FF0F49F3FF0F4AF3FF0F4BF3FF0F4CF3FF0F4DF3FF0F584F00002CFF0B4028FF0B401CFF0B4020FF0B4010B5041C0F4A116801230B4313600E4A0E4B1A60CB
:400A40000E4A1368802109020B431360002809D100200CE00120FFF72DFFFFF7EDFE002804D1013C002CF5D1102000E0002010BD60F02E400220000078002E4010002E4097
:400A8000034B1868C0231B02184000D00120704700010B4010B50D4B1A6801218A431A601A68022082431A60094A10683024A043203C204310601068093CA04301431160AB
:400AC0001A68802109060A431A6010BD00F02E4000FF2E4038B51D4B1B6801241C40002802D0012816D02BE0184B19680122914319601968022081431960154B19682E3085
:400B000081432038014319601968093881430A431A6018E00D4B1A6802218A431A600C4A10680725A84301431160116830208143103801431160196801220A431A6002E0E2
:400B40000020FFF78BFE201C38BDC04600F02E4000FF2E4008B5FFF768FE044A1368C02109020B431360FFF764FE08BD00010B4010B5FFF75AFE08490A68084B1A408024B5
:400B8000E40122430A600A6813408022120213430B60FFF74EFE10BD00010B40FF3FFFFF70B5061CFFF741FE041CFFF769FF002803D0FFF7DDFF012500E000250848331C1D
:400BC0000340084A106808490840184310601368012D01D1FFF7BEFF201CFFF72AFE70BD0404040010020B40FBFBFBFF10B5244B1B685B0715D5234B1B685B070ED5224BD0
:400C00009969042001401F4C22688A4322609A6982439A61DB68002B00D098470420FFF7BFFF174B1B685B0518D5164B1B685B0510D5154B99698022D2001140114802680C
:400C40008A4302609969114A0A409A611B69002B00D098478020C000FFF7A2FF084B1B685B030CD5074B1B685B0304D5064B5B69002B00D098478020C002FFF791FF10BD89
:400C800010020B40E800002018110020FFFBFFFF10B50B4C23686022934323602368513A93432360226810231843104320600120FFF700FE236810229343236010BDC046B4
:400CC0000002044038B5051C0E4C226820231343236023684022934323600020FFF7EAFD23680F2293432360236810202843184320600120FFF7DEFD23681022934323603F
:400D000038BDC04600020440F8B5274A13687F218B43136025490B681B0B1B03244803430B60136820218B431360116840230B431360CA277F000020FFF7BCFD1A4C2368EC
:400D40001026334323600120FFF7B4FD194B1D682368B34323600020FFF7ACFD08231D402368334323600120FFF7A4FD2368B3432360002D02D10A20FFF79CFD013F002DE2
:400D800001D0002FD7D1084B1A6840218A431A601A683F318A431A60044A13681B0B1B0305490B431360F8BD00020440080204404902000004020440B60D000010B5041C33
:400DC000FFF7A2FF2009FFF77DFF0F202040FFF779FF10BD38B5051C0078012404E0FFF7EDFF285D0134E4B20028F8D138BDC04610B5041CFFF788FF2009FFF749FF0F2052
:400E00002040FFF745FF10BD08B52820FFF73AFD0320FFF73DFF0520FFF734FD0320FFF737FF0F20FFF72EFD0320FFF731FF0120FFF728FD0220FFF72BFF0520FFF722FDD8
:400E40000620FFF7D5FF0E20FFF7D2FF2C20FFF7CFFF0820FFF7CCFF0120FFF7C9FF0C20FFF7C6FF0320FFF7C3FF0520FFF70AFD08BDC04608B50C20FFF7BAFF0122014BFF
:400E80001A7008BD3411002008B5064B5B78002B04D1FFF7B9FF0122024B5A70FFF7EAFF08BDC0463411002008B501280BD0002804D002280CD003280FD012E08039C8B2B4
:400EC000FFF796FF0DE04039C8B2FFF791FF08E06C39C8B2FFF78CFF03E02C39C8B2FFF787FF08BD30B585B0051C002201AB9A7209240DE0281C0A2103F0CEFC303101AB0E
:400F00001955281C0A2103F041FC051C013CE4B2092DEFD8281C0A2103F0BEFC303101A801550019FFF756FF05B030BD08B5FFF77CFC094A117820230B43137007490A7844
:400F400010231A43D2B20A70054A11780B43DBB21370FFF76EFC08BD92000F4090000F4093000F40014B1878C0B2704760000F40014B1878C0B2704763000F40034B1B789A
:400F80005B07FBD5024B18707047C04660000F4043000F40014B1878C0B2704753000F4008B501E0094B1B78094B1B789B06F9D4FFF73BFC074B197801220A431A701A780F
:400FC00001218A431A70FFF734FC08BD53000F4063000F4093000F4008B50F22064B1A70FFF7DEFFFFF7BEFFFFF7C2FF0023034A1370034A137008BD82000F4080000F4029
:4010000083000F4008B5064B1B78002B04D1FFF7E3FF0122024B1A70FFF788FF08BDC04636110020044B1B68002BFBDB0002034B1843014B186070470000014040000080C2
:40104000034B1B68002BFBDB024A014B1A607047000001404000004010B5064A13680724234000021843CB00FF2119400143116010BDC0460003014004490A68DF231A406E
:401080004001BF3B184010430860704700000440F0B58FB0002802D10120404244E10025009000210C2202A801F05BFB00210C2205A801F056FB08A80021142201F051FBC9
:4010C00000980D9501F0EAFCA842E5DB009801F0F8FC009802A901F0B5FDA842DCDB03980C236B43914E9B59834218D90C236B43F618B1880D9603F049FB041C00F05EFACA
:40110000071C201C02AB19897843C90001F024FCB3684000202F11D021301C1C04E06B1C062BE3D01D1CDBE7844201D8E418FBE7241A5A1E144221D0E4181FE01C1C1A1C2B
:4011400001260130824202D80136D218FAE70399CB1A981A0C235D43744B01915D19A98803F014FB02AB19894001C90001F0F4FBAB6840005E4302AB301A188203986C4A6C
:40118000011B08910994012391420DD9694A0333914209D9684A0233914205D90023674A8A425B410C22D31A02AA0132D37700235E4DDA002E1C483697592E1C874246D9B8
:4011C000331C48339B181A795E79171C7743651E6D18201C391C019203F05EFB081C311C03F0D4FA212202AB9B181870311C201C03F052FB222202AB9B1801311970201CE2
:40120000391C03F0C3FA02AB9884391C281C03F043FB081C311C03F0B9FA262202AB9B181870311C281C03F037FB04AC0131E177281C391C03F0AAFA6A46928802AB18859B
:401240005E801A8001F0A8FD051E04D124E701330A2BADD1B4E73A4B00211A8A01F081FADF23002621225B00EE5402AB9B181A78C023FF33EA5402AB988CC022011C920076
:4012800011408F1022215B1819783F2319403943E0277F00E955C221FF31685402A90131C87FE12149006854262002A909180878C421FF31685402A9098DE07F0A40921013
:4012C00003401343E2225200AB54281CC623C730FF33E954FF30099901F064FB281CCB30FF30089901F05EFB281CFF30FF30154901F060FB0098311C2A1C331C01F06DFCD3
:40130000041C281C01F060FDB44200D0C4E6802302AA9B00D3810D9B079201939B880098938105A903F01EF80FB0F0BD884F0000A77F0000FFFF0000FFFF3F00FF03FB0051
:401340005811002055AA000008B5002101F074FFFFF79EFE08BD031E0C2B04D04800102B03D0880001E048084018704730B50024C56C436CA5421CD099421AD3EB189942A0
:4013800017D2013B994201D0013101E0012149420124002A0DD0363000780C2805D08BB2102804D009010B0901E009050B0D01241360201C30BD000073B5531C17D0551A6D
:4013C0000135002D13D0041C0E1C01F036FD084B00211A8AA06801F0C4F902230093A3686068311C2A1C01F0EFFB0023E37373BD5811002037B506AC20CC247800950194F0
:4014000000F0B8FE3EBDF0B58DB01E1C12AB0D1C02CB071C1B78111C059315AB1B8809A8069316AB1B8800220793002400F002FEA04214D1381C291C321C00F083FD041EA0
:401440000DD0149B09A90093069B129A0193079B0293059B00F0CDFC281C01F0F2FC201C0DB0F0BDF0B587B0051C0F1C161E019302D1012302939EE0031C36331878111C22
:40148000FFF769FF021CEB8B041CDA40131EAA6A9342EED2698E381C5B18191C0222039301F0D2FC381C01F0EBFC7B7B0293002BDFD1AB8B013B1C40A3B20493049ABB68AD
:4014C0009C18019B002B04D12B6C9E4203D22E6401E0731C2B642B1C36331B78102B0AD0202B12D1201C01F052FA0199061C201C01F058FA4FE0201C01F060FA6B46061CFC
:401500009988201C01F056FA45E0381C01F099FC23780593F3071ED5059B059A1E090F231340019A120113432370AB8B049A013B01349A4209D10399381C0131022201F03A
:4015400083FC381C01F09CFCBC6823781B011E43019B1B091EE06B461B79049A2370AB8B0134013B9A4209D10399381C0131022201F06AFC381C01F083FCBC6822780F23F1
:40158000161C05991E4036020E4301999A43090A0B4013432370381C01F053FCEB6B5A1C09D0002E01D00133EB63019B002B02D0EB6B013BEB63029807B0F0BD054A0C2307
:4015C000904204D9044A0433904200D91033181C7047C046F40F0000F4FF0000F0B585B0041C01F0D9FB051C061E00D1A1E0201C01F013FB504F3B8A834209D3002807D04D
:401600000021201C2A1C0B1C01F07AFA002804DA281C01F0D9FB00268BE0281CFF30FF3001F0CCF9454B984201D000267EE0281C0B3001F0C3F9FE231B02061C1842F4D01A
:401640003B8A8342F1D32B7C022BEED16B7B0193002BEAD0201C00213C22183001F081F8281C133001F0AAF90290002804D1281C203001F08CF90290281C163001F09EF965
:40168000071E10D1281C283001F098F98F231842CBD1281C243001F07AF9071C281C2C3001F075F9E062029B221CA36102233532A762039213706A46231C281C127934334D
:4016C0001A700E3001F07AF96086281C113001F075F9039B2086A6831B7871095F43638E89B2FF1803F052F8092380B2C019206201229A40B24201D1E38302E00133102B25
:40170000F6D1029B0199181A03F040F8019BA06373436362FFF752FF231C36331870202800D0E762012301265B42E363281C01F04BFB301C05B0F0BD5811002055AA00007D
:40174000037F023959438368C8187047031CF7B5363301921F78061C0D1C381C111CFFF7FAFD021CF38B041CDA40131CB26A0020934238D2718E281C5B18191C02220093B5
:4017800001F062FB281C01F07BFB002829D1B28BAB68013A1440A4B219194B1C0E78944209D10099281C0131022201F04DFB281C01F066FBAB681878000206430C2F09D006
:4017C000301C202F0FD198785B7800061B041843304308E0019B3009DB0704D43005000D01E001204042FEBDF7B51F1C031C009136331D78111C041C281C161CFFF7ABFDAA
:40180000021CA38B291C581E9043C00002F0BEFF351C83190193019B9D4206D8201C00992A1CFFF793FF002803D0A36C002B09D115E0636C002B00D16564A36C01350133D1
:40184000A364E8E73B6827655A69002A04D0201C0099331CFFF706FEE36C0133E364F7BD08B5024BFFF7FEFD08BDC046FFFFFF0F70B5061C0D1C1C1C002A01D0FFF7F2FDAC
:40188000301C291C221CFFF7EBFF70BDF0B5061C141C1F1C85B01D680191002D22D0134B7C331B78022B06D0301C0199221CFFF74DFF039006E0301C211C03AAFFF756FDAE
:4018C0000028F1D0019B5B7B002B01D000200BE0B26B039B0132934204D8002B02D0013D1C1CDAE7201C3D6005B0F0BD5811002007B5019301ABFFF7C9FF019B5A42534169
:401900005B4218400EBDF7B5071C151C1E1C00240191381C01992A1C0123FFF7E9FF002806D0BB6B01349C4201D8051CF1E70024002E00D03460281CFEBDF0B585B0019395
:40194000031C36331B78041C0E1C171C0C2B5FD001235B4202930393019B002B3FD0231C36331878391CFFF7F6FCA28B638E013AE58B02421FD1E840013B1D180222301C2C
:40198000291C01F061FAA38BB2689B081168002911D1013B0432002BF8D1029B01339D4205D0301C0399029AFFF706FD0395301C01F063FA0295311C3A1C0123201CFFF7FD
:4019C00097FF311C051C3A1C201C0023FFF74AFD002D04D0019B2F1C013B0193BCE7301C0399029AFFF7E8FC15E0311C3A1C0123201CFFF77DFF311C051C3A1C201C0023AB
:401A0000FFF730FD002D06D02F1C019B013B0193019B002BE9D1019805B0F0BD031CF0B585B0019136331978061C081CB38B5043DB00141C5A1E1040181A02F0A7FE071CF2
:401A4000051C7B1B9BB20093002D19DD0E4B7C331B78022B06D0301C0199221CFFF776FE039006E0301C211C03AAFFF77FFC0028F1D0039B0134A34202D1013D1C1CE0E7AF
:401A8000009805B0F0BDC04658110020F7B504680E1CA76825684068796A002D03D102F075FE013038E002F071FE2369984202D201235B4223612369013303D10023656128
:401AC0002361E3832169E28B451A2B1E934200D9131C002B07D060695918C018D21A60612161E283ED1A0020854215D0311C626901AB381C0195FFF7C9FE2169019B021C56
:401B00006061C81A45192561002B04D1A068311CFFF784FFE0830198FEBD421E00231F2A14D92F2811D007D826280ED002D8222809D10AE02A3804E03A2804D33F2804D9F2
:401B40005B38022801D9012300E00023181C704710B500281FD00B24A24200DC541E0023A34216DA082B06D10A7A202A0AD02E220270013006E0002B04D10A78052A01D179
:401B8000E03202E0CA5C202A01D0027001300133E6E70023037010BDF0B5141C87B004930CAB04CB104F1B78061C05933B680092059A0D1C01920E9A02925B68221C9C4665
:401BC000049BE0473A68094B9A420BD0002809D10C9B301C0093059B291C0193221C049B00F0C8FA07B0F0BDEC0000202050000070B5C37A041C0B7010300D1C00F0DEFED0
:401C0000061C201C0E3000F0D9FE360430436860201C123000F0D2FE0004A860201C183000F0CCFE061C201C163000F0C7FE36043043E860201C1C3000F0A9FE286170BD21
:401C4000F7B5836901920093038A041C0E1C002B05D10098211C1830626900F00BF900980199221C00F011F9051C201C00F066F9002D19D02B78002B16D0E52BEFD0EB7ADE
:401C80000F2BECD0082003401F1EE8D17069291CB269FFF75DFF281C311CFFF7A9FF238A381C0133238201E001204042FEBD70B50025C36C041C0E1CAB4210D0E36C626C4D
:401CC000013BAA189D4206D2531C201C311CFFF7C9FB0135F2E7201C311CFFF7C1FD00236364E364A364236570BD0000F0B51F1C836B85B0013302932E4B161C1A1C019105
:401D00007C321278051C0393022A19D1036D9F424BD0836C002B13D0FFF7C9FF002F0FD02B6DBB420CD1EC6CAB6CA34204D96B6C621CEA64E0183BE0281C0199FFF7B7FF86
:401D4000012E02D9029B9E4206D92E6C012E02D9029B9E4200D90226341C281C0199221CFFF7F4FC002805D0029B01349C42F4D9022416E0002F0AD0039B7C331B78022BDD
:401D800005D1281C0199221C3B1CFFF72DFD201C0EE0281C0199221CFFF7D8FC0028E9D00134B442F5D1002002E0002FBBD1C7E705B0F0BD58110020F8B5071C0E1C151C57
:401DC000FFF794FF041E05D0381C311C2A1C231CFFF74EFD201CF8BD38B5051C0C1C1A3089B200F0E7FD281C210C143000F0E2FD38BDF7B5041C0F1C019308AB009204CB64
:401E000000211E8820220AAB1D8800F0AAFC0B22391C201C00F027FF6B46201C1B79311CE3720E3000F0C6FD201C291C103000F0C1FD201C311C163000F0BCFD201C291C59
:401E4000183000F0B7FD201C0099FFF7C5FF201C08991C3000F0A6FDF7BD38B5041C1A3000F0ACFD051C201C143000F0A7FD0004284338BD00238B60837F202B02D1002A96
:401E800000D142694A600A607047F0B5041C9368151C87B00F1C5801616A1668019302F075FCEA680290904201D20023EB60E38B053B0393EB68002B00D16E68019A039958
:401EC000CA400492002E1AD0221C343211784A1E0592029AD31A08D0321C201C391CFFF707FD061E01D1002026E0201C311C1830FFF726FC0499059B1940411807E0039A4C
:401F0000238E1341049A9A42EDD2E16A5118029B381C2E60EB60012200F096FF381C00F0AFFF0028DFD1039B01309840019B013803405801BB68181807B0F0BD8368013385
:401F400083607047F0B5061C87B01836041C0D1C301C02A9171CFFF78DFF201C291C02AAFFF793FF049B019301330493002832D1002F04D1238E002B01D0002030E0291C82
:401F8000029A0023201CFFF7BEFC291C021C0023201CFFF711FF071C281C00F02BFF002FEBD0A28B0021A86800F0DBFB301C391CFFF7C6FB061C34342478013C631C08D00D
:401FC000281C3119012200F03FFF281C00F071FFF3E7A86804E00378002B01D0E52BBCD107B0F0BDF8B5061C0D1C141C1F1C002A1DD0E523081C137000F023FF002F0BD0D3
:40200000201C1C3000F0C3FC736A716A013B181802F0BCFB071C01E0FA27BF00201CFFF71CFF291C021C3B1C301CFFF786FC687BF8BD0000F7B50E1C0090141E00D1013CAF
:40204000301C344900F0BAFB00280BD10098311C022200F008FE009820210922023000F080FB4EE0012300255B420193775D002F02D0A54206D146E0019B2C1C2F1C01338A
:402080000ED10FE0381CFFF748FD002801D101203EE02E2F00D1019501350D2DE6D1F6E7271C019C002CF2D0082CF0DC3F1B042FEDDC00982021082200F053FB0025A54251
:4020C0000CDA705DE52802D10523002D02D000F0B4FBC3B2009A53550135F0E7009D01340835281C20210322361900F03AFB0024013FBC4205DA305D00F09FFB285501348C
:40210000F7E7002004E0019B0133C9D1271CCBE7FEBDC04630500000F0B587B001900CA820C80F1C0678111C03A81A1CFFF782FF00281AD10198391C2A1CFFF7A6FE041EE3
:4021400013D00378002B10D003A90B2200F0FAFA002806D1E37A1A1C3240B24201D1082B05D1AB680133AB60E4E7002000E0201C07B0F0BDF0B5041C0E1C89B003930EAB32
:40218000029204CB04AD1F78291C1830FFF772FE00950197201C311C029A039BFFF7BCFF09B0F0BDF0B51F1C87B0049005913A60101C5C21141C00F0D5FB0026051CAC42D1
:4021C00006D101343C60201C5C2100F0CBFB051C002D11D02B1B002B0EDD1022019200220096029204980599221CFFF7D5FC00280ED0FFF732FE061C38685C2100F0B2FBE5
:40220000002802D02C1C051CD9E70C9B01301E6007B0F0BDF0B595B00A931AAB1F780123051C5B420F930B68089109939B6810A8191C141C079300F0E3FD0EAB009307983D
:4022400010A92A1C0DABFFF7ADFF002804D110A800F0EBFD0120CEE0089B0FAADB7A07980B930E9B02920093002310A901930D9AFFF792FC061E68D0C37ADA06E7D4129A70
:40228000109D801A42110692002C34D05B4B5C69002C18D02368002B13D0A27A002A10D09A8B06998A420CD19A69AA4209D19B68079A934205D10923089A5B4213810024D6
:4022C00038E0E468E4E7079810A9321C0123FFF789FE002804D00123089A5B42138129E0474B1B68DC68002C36D0079810A90E9A0F9BA04730E00A9A002A43D0DB0734D475
:40230000301CFFF7AAFD071C301C1C3000F03FFB6A46099B128B9D619A830123099A5B421361176050600B9A0023D20700D5031C089A5360089B08229B5E002B00DA0124EA
:4023400010A800F072FD201C55E0002C42D00A9D3D434BD0351C06960A9B1C1E41D0002F3ED10124381C071CD2E715230B9A1A42C6D07C427C41089A1B3B1381E4B2BFE7D3
:40238000051C0690012F1ED1002E1ED1341CFEF7BBF9202200261A4B10A91B68019282B2000C03920490009602969F6807980D9A0E9BB847B0420BD0129B109DC01A4311B4
:4023C0000693301CCFE700240DE03C1C0020CAE70124C8E70A9B002BD2D0251C0694BEE70024012FD3D0201C271C91E706950124281C2F1C8CE715B0F0BDC0465811002091
:40240000EC00002007B5031C42680020824208D09968009048681968DB6800F0B2FB431E98410EBDF7B5051C0E1C83680122081CA9699F8B00F008FDB368301CAC8B01931C
:4024400000F01EFD00281ED16401013F019B2740BFB2DF19381C69681C3000F0A3FA2968381CFFF7B9FCFEF74FF9041C381CA1B2163000F09FFA381C210C183000F09AFA7B
:40248000301C00F0B7FCF7BDF7B50468061CA36800910193FFF7FAFA051E01D100233BE02768002F2FD13A1C01980099331CFFF71DFC021E04D102235B42338103332BE0A2
:4024C000164B2060606127617C331B78013D022B17D001980099FFF7C3F90123002810D01AE00E4B7C331B78022B05D00198009962693B1CFFF7BCF923696761013323616C
:40250000013D002DCAD0019800996269331CFFF7EDFB071EE5D1CEE7181CFEBD58110020F0B5036899B0079108929D680389041C01339BB20026012B00D9D9E0291C10A8C6
:4025400000F05EFC291C0CA800F05AFC25681596AB680696029318330993029B01965B6A0A9301235B4214930CAB1693089B0493201C10A9FFF788FF00280AD014A8FFF7B1
:4025800041FF031C58425841019B40420340019399E02B690A9901334B4302996268888B9B1A013802400592049A03929A4200D9039369690998FFF7C3F8029B071C34331A
:4025C0001E78029B6068998B02F0E0F8013E0640BF19029B059A9B8B9E1A039A964200D9161C9E422AD0059B002B03D163686A6893420DD00CA8391C002200F025FC0CA843
:4026000000F03EFC002803D007235B4223815EE00E9B07990B930B9A059B94466344181C321C00F020FB0CA8391C002200F00CFC0CA800F03EFC002812D048E0159B149A01
:402640009A1897420AD014A8FFF7DCFE00283ED101231593079B1497179301E001331593079B01379B190793039B9B1B0393049B9B1B0493019B9B1901936368F6186B6824
:4026800066609E4209D9002B04D01B4B7C331B78002B01D1012306936E6000230593039B002B96D1049B002B00D061E714A8FFF7A9FE031C58425841019B404203400193F6
:4026C000069B002B03D0281C0CA9FFF7ABFE019B089A934205D00822A35E002B01D1083B238110A800F0A1FB0CA800F09EFB019E301C19B0F0BDC0465811002030B50568E9
:402700000822835E85B0AC68002B17D1C27A11331A4213D0211C684600F072FB281C6946FFF780FE064B7C331B78022B03D1201C6946FFF7BCFA684600F077FB05B030BDE7
:4027400058110020002330B5934206D05C1CC55CCB5C9D4203D1231CF6E7002000E0012030BD031CF0B51C1C002A1FD00326334203D01970013A0133F5E7950816D0324031
:402780000E02761834043619032D06DD1E605E609E60DE60043D1033F6E72C1C1F1C002D02D040C7013DFAE7A4001C19231CA218934202D019700133FAE7F0BD002210B5B5
:4027C000845C8B5CA34204D10132002BF8D1181C00E0012010BD021C031C981A0133591E09780029F9D1704730B50024131B002B09DD055D0B5D9D4207D10134035D002BE1
:40280000F4D1181C02E0002000E0012030BD70B50024151B0319944202D100255D1905E00E5D002EFAD006550134F2E7AB4203D000221A700133F9E770BD031C613B192B79
:4028400001D8DF2318407047F0B5344C0022A54401240E1C00940821131C039000F0E7FB051E55D00023221C0093301C231C142100F0DDFB041C281C002C02D100F094FBF8
:4028800046E000F0F5F8071C0022391C201C00F09BFB201C00F082FC0021201C0A1C00F093FB8022281C06A9920000F05FFC0290002801D100270DE0201C06A9029A00F085
:4028C00096FD029BFF1A984202D1002FE9D1F1E701277F42281C00F067FB201C00F064FB002F12D105A93A1C039800F017FD05993A1C301C00F032FD039801F0B7FE011CA5
:40290000301C01F09AFE381C04E0301C00F0BDFB0120404287239B009D44F0BDE4FDFFFF08B5FFF791FF08BD032330B5084C094A033021689843156843180020AB4205D82E
:4029400023609368506801339360401830BDC046D81100203811002008B54B1E181801F015FF08BDC9B203788B4204D0002B01D00130F8E7181C7047037842781B021343E7
:4029800082781B021343C0781B0218437047C37882781B029B1842781B029B1800781B02181870470B0A017043700B0C090E8370C17070470170090A4170704743780078D7
:4029C0001B02184370470000002010B5064CA37C834208D180239B002382FDF787FE0120A37C0343A37410BD5811002008B5FFF79BFF002800D1FEE708BD08B5FFF794FF2F
:402A000008BD38B5051CFFF7F1FF041C2A1C0021FFF7A7FE201C38BD002807D0044A9368013B9360002B01D1024A13607047C04638110020D8110020014B586019607047F4
:402A40003811002013B501A900F0F6FB041E02D10120404207E000F0BCFC0328F8D1201C019901F0D7F916BD08B5FFF7EBFF08BD002802D00368586801E001204042704753
:402A800008B5002802D0031C0020984708BD08B5002802D0031C0120984708BD08B5036800799B69984708BD036810B55B69041C0120002B03D020799847434258416071FE
:402AC00010BD10B54379041C002B01D1FFF7ECFF607910BDF8B5041C0F1C161CFFF7F1FFA068FFF7D4FF2368391C321C9D6820790123A847051CA068FFF7C2FF281CF8BD4B
:402B000010B504690919FFF7E5FF10BDF8B5041C1E1C0F1C151CFFF7D4FFA068FFF7B7FF2368391C9B68321C9C4620792B1CE047051CA068FFF7A4FF281CF8BD37B506AC47
:402B40000569247849190094FFF7E0FF3EBDF7B5041C1E1C0F1C151CFFF7B3FFA068FFF796FF002223680092DB68391C9C46321C2B1C2079E047051CA068FFF781FF281CF7
:402B8000FEBD37B506AC0569247849190094FFF7DEFF3EBDF7B5041C1E1C0F1C151CFFF790FFA068FFF773FF012223680092DB68391C9C46321C2B1C2079E047051CA0685F
:402BC000FFF75EFF281CFEBD37B506AC0569247849190094FFF7DEFF3EBDF7B5051C161C0F1CFFF76EFFA868FFF751FF00222B680092391C321C2879DC680123A047041C3A
:402C0000A868FFF73DFF601E84416042FEBD10B504690919FFF7E1FF10BD30B5041C85B0FFF74FFFFB212368207901AC1D698900231C0022A8470023984200D12389181C43
:402C400005B030BD38B5041C0D1CFFF73AFFFB212368207989001C6900222B1CA047431E9841404238BD031C0B43F0B59B0723D193101E1C0D1C041C032E0BD92F68043E42
:402C800027606F686760AF68A760EF681035E7601034F1E79C082501A400401949191B1B08D000249B000D59055104349C42FAD10019091903231A40031C0B43DB0723D43E
:402CC00053101E1C0D1C041C032E0BD92F88043E27806F886780AF88A780EF880835E7800834F1E79C08E500A400401949191B1B08D000245B000D5B055302349C42FAD1BA
:402D00000019091901231A40032A0BDD0B78043A03704B7843708B788370CB780431C3700430F1E700239A4203D0CC5CC4540133F9E7F0BD10B5031E16D0012A07D0022AA1
:402D400007D0002A08D00322524202810CE0426801E002685268891800225C68101C8C4204D059601A8101E00120404210BD10B5437B002B0FD1037B002B0CD0041C837B78
:402D800021684068A268FFF742FF002801D0012363730023237310BD002210B5094BD8689B6882420CD0191C08331C1C083C2468002C03D1012348680B6002E00132F0E767
:402DC000002010BD58110020002230B5084BD9689B688A420AD01C1C08331D1F2D68854202D10023236001E00132F2E730BDC0465811002008B501230373FFF7B8FF08BD63
:402E000038B510220D1C0021041CFFF7AAFCFFF7C3FF031C0120002B06D0A360012300205B4265602360A07338BD10B5041CFFF79EFFA068FFF7C8FF10BD08B5FFF797FFED
:402E400008BD012303737047036870B5041C0D1C161C994208D0037B002B01D0FFF787FF00232560A673E37370BD10B5041CFFF7EBFF0123E373237310BD00230373704752
:402E800038B5457B002D11D1C37B002B0FD1041C837B21684068A268FFF732FE0123002802D063731D1C02E0E37300E00125281C38BD38B5457B002D0DD1041C837B21688B
:402EC0004068A268FFF7A3FE002802D00135657302E0257300E00125281C38BD38B50F4B5C69A17AE568002907D1201C1022FFF738FC0123E560A3720EE0002D09D1102018
:402F0000FFF77BFDE060002803D0291C1022FFF728FCE468002CE4D1201C38BD58110020002802D0002383720360704738B5114B9C69217B00290BD1201C21606160A160D6
:402F400010301422FFF70DFC237B013323730FE0656A002D09D12820FFF74FFD6062002803D0291C2822FFF7FCFB646A002CE0D1201C38BD58110020002804D0037B002BE2
:402F800001D0013B0373704738B5837A002B09D0041C0568FFF7B2FB281CFFF7EDFF201CFFF7BEFF002038BD08B50268817A0123002A07D09268002904D0002A02D0FFF75F
:402FC000E3FF0023181C08BD08B5FFF7B3FE08BDF0B587B004930CAB1B78071C059300200DAB029103921E78FFF7A0FF051E01D1002412E0FFF772FF041EF9D06B461B7B63
:403000000560C372049BAF6002980093211C059A331CFFF7FFF8002806D0201CFFF780FF281CFFF7A9FF0024201C07B0F0BDF0B587B01F1C0CAB1B780D1C0393002305A9BD
:40304000161C059300F0F8F8041E01D100201AE0059B002B02D01B78002BF7D0201C00F0B8F90028F2DD15231D4201D00328EDD105990029EAD0039B00970193201C2A1C85
:40308000331CFFF7A5FF07B0F0BD37B5002410210094221C0123FFF7CAFF051EA54207D00068FFF769FF281CFFF73AFF201C01E0012040423EBD0000F0B5071C002585B0D6
:4030C00003910C4EEC000398A159FFF777FB002809D13419A07921790090E2796379381CFFF7A5FF03E001350F2DEAD1002005B0F0BDC0463450000008B5FFF7DDFF08BDD2
:4031000008B5031C0120002B02D0181CFFF74CFF08BD000038B5FFF757FC002822D0124C43000001E360FFF76CFCE368A060208A5843FFF766FC0023A268E168258A8B42EE
:4031400004D05060013340190832F8E71020FFF758FC60612820FFF754FC0222A37CA0611343A37438BDC0465811002038B5031C0020824211D083420FD09D7A1C68854250
:403180000BD0844209D0DC7A240703D4052252421A8102E0181C01F02DF938BD08B51523C27A1A4202D001F0EAF901E00120404208BD08B54368002B01D0984701E0012004
:4031C000404208BDF7B5071C194C251C5735297800291AD10126A36D201C5C220193FFF7C0FA019B2E70381CA365FFF7E2FF00281BDB104A936F01339367231C032256339B
:40320000276020712E701A700FE0A56D002D09D15C20FFF7F2FBA065002803D0291C5C22FFF79FFAA46D002CCFD1201CFEBDC0467411002058110020F0B50F1C85B03A212D
:40324000061CFFF78FFB351C1B4C00282DD0831B02930378002B0DD000224378451C0192934209D082783A2A06D1303BDBB20193C51C01E0051C0193236820791B689847DC
:403280000390FFF7A8FA029B984203D0A46D002CF2D10AE00398311C029AFFF7A5FA0028F4D12379019A9342F0D1002F00D03D60201C05B0F0BDC0467411002008B5FFF744
:4032C00081FF08BDF8B50D1C171C0023124C834202DAA46D0133FAE7236820791B689847061C281E17D0301CFFF775FA0530B84211DC0020325C2B182A54421CB15C002993
:4033000001D0101CF6E73A255D702279043030329A70DD701971F8BD7411002073B50E1C01A9151CFFF788FF041E14D000F051F8C30710D5012D05D0022D05D0002D0AD174
:40334000022302E0082300E00423201C0199321C00F093FD01E00120404276BD30B585B0019103A9151CFFF767FF041E14D000F030F8032810D1012D05D0022D05D0002D76
:403380000AD1022302E0082300E00423201C039901AA00F0B8FD01E00120404205B030BD38B5041C0D1CFFF779FB00280ED0201CFFF787FB201C01F0BDF9201CFEF70EF936
:4033C0005534002800D02570207801E00120404238BD021C08B55532031C1078002805D15178002902D0181CFFF7DAFF08BD38B5031C0020824214D0834212D01C689D7AFD
:4034000084420ED0A46885420BD0844209D0DC7AE40603D4062252421A8102E0181CFFF77FF838BD08B5FFF7E2FF08BD00487047FFFF0000014B18687047C0464411002061
:40344000004870474451000073B56B46DD1D291C0122061CFDF72CF92B780A24FF2B00D1033C301C291C0122FDF722F92878FF2803D1013CE4B2002CF3D176BD73B504694E
:4034800086786B46DD1D301C291C0122FDF710F92B78002B05D1013C002CF2D10120404200E0002076BD73B56B46DD1DFF23061C0C1C2B70002C06DD301C291C0122FDF77B
:4034C00007F9013CF6E773BD08B5FDF7EBF808BD38B5094D2C68032C0ADC631C14202B60FFF78FFAE3B29A00AA185060847001E001235B42181C38BD441100203F23F0B5A4
:40350000194087B0013304AC19430190130E85786370130CA370130AE37000232170191C22710826625C171C5B00DBB25F40381C7F27B84301D009277B405200013ED2B2AF
:40354000002EF0D101310529EBD101225B0013436371019BDE6803AF281C391C0122FDF7A7F83B78FF2B04D0731E002E0AD01E1CF1E7281C211C0622FDF7AAF8281CFFF7E0
:4035800063FF00E0FF2007B0F0BDF0B5071C85B0019185780121281CFFF785FF281CFDF719F8381C09210022FFF7A8FF02AB9E1D3070002801D0FF2424E0041CFB68009316
:4035C00002ABDF1D0122281C391CFDF771F802223B789343FC2B05D00134009BA4B29C42EED1E8E7281C01991022FDF761F8281C311C0122FDF75CF8281C311C0122FDF7CD
:4036000057F80024281CFCF7EFFF281C0121FFF74AFF201C05B0F0BDF0B58BB010AC2478800006944E4C201846687078002800D091E004934B020593042307920391019328
:40364000049BB578013B5A4253411922D31A0293F378039C022B00D0059C281CFCF7C4FF0121281CFFF71FFF281CFCF7B3FF301C0299221CFFF742FF08ABD870002802D0FF
:403680000124644254E0281C0121FFF70CFF079B049C00938021334B00981B688900984709AB020A1A70029A5870FE23182A00D0023B08AAD71CD370281C391C0122FDF777
:4036C00007F88022281C00999200FDF701F8281C09A90222FCF7FCFF0122281C391CFCF7E7FF1F233A781340052BC9D1301CFFF7C5FE0028C4D1069B002B05D18022920087
:403700009446009B63440093013C002CC2D1029B192B0DD108ABD91CFD23281C01220B70FCF7D6FF301CFFF7A9FE441EA0414442281CFCF759FF281C0121FFF7B4FE002C32
:4037400007D0019B013B0193002B00D078E701246442201C01E0012040420BB0F0BDC04644110020F000002070B50F24D308661CE41A0023CD08751B065D1B0201343343C8
:40378000AC42F9D1072002240840C340501A8440201C0138184070BDF0B58DB00593464B800018184B02079304234468049109920293059BA578013B5A4253411222D31A0D
:4037C0000393E378049E022B00D0079E281CFCF70BFF0121281CFFF766FE281CFCF7FAFE201C0399321CFFF789FE059B0193099B0093002836D10026A3780693E368089367
:40380000089B9E422ED00AABDF1C0698391C0122FCF74EFF3B78FE2B01D00136F0E780220BAE281C00999200FCF742FF311C281C0222FCF73DFF8021204B00981B688900B4
:403840003778767898471E4B98420ED03F023E43B0420AD0039B122B04D1201C0C210022FFF74CFE0126764213E0802292009446009B63440093019B013B0193002BBAD1CB
:403880001E1C039B122B04D1201C0C21321CFFF735FE281CFCF7A8FE281C0121FFF703FE002E06D0029B013B0293002B81D101267642301C0DB0F0BD44110020F0000020FB
:4038C000FFFF0000F0B5051C8BB001918778381CFCF780FE281C3A210022FFF70FFE041C381C002C06D0FCF77FFE381C0121FFF7DAFDD5E009A90422FCF7DAFE09A8FFF787
:403900003BF8061C381CFCF76FFE381C0121FFF7CAFD002E02DA7300DB0F06937F23311C9943C9B2002900D05F490123360AB6B21E4205D101345B00E4B29BB2102CF7D1EB
:40394000594A91420BD0642161435F32FF32891805E01E4205D05B0001349BB2E4B2102CF7D16422FA235443DB00E21889B292B2381CFCF779FEC4B2604244416442E4B2B4
:40398000002C00D08CE0AB780293EB78012B02D1019B1C78A4090322019B444EDB7802981A405B061B0FF31892009259197C514389B2FCF727FE071CFF20002F72D00722A3
:4039C000019B5B781A405B061B0F9200B218F618126A337C04920393002B63D0019B01989B781A211C220593FFF7BEFE0790002C1CD1502153220198FFF7B6FE2F21061CFE
:403A000031220198FFF7B0FE4922041C3E210198FFF7AAFE01231A1C0234A240141CC018B34044439EB2760A74430DE00120844238D1019830214522FFF796FE069B84027B
:403A4000002B01D00223EB7003980499784300F09DFE6423059A5A43801858437B43C008DB08021E9A4200D91A1CFA235F43079BEA60FF089840B84200D9381C28610C217B
:403A800001980D22FFF770FE061C0298FCF7B8FD802330439B006870AB80AC60002001E0012040420BB0F0BD72060000DC500000F0B5C8268578760087B0041C311C281C18
:403AC000FCF7A0FDB04200D9C1E00526674BE360281CFCF789FD281C0A21FFF7E4FC64490622403102A800F0F9FF281CFCF772FD02A90622281CFCF7EBFD281CFFF7A4FC5E
:403B0000071C281CFCF770FD281C0121FFF7CBFCFB0703D4013E002EDAD198E0281CFCF759FDD522201C52000821FFF7E7FC0422104254D0FA26281CFCF756FDA578F600C5
:403B4000281CFCF747FD00223721201CFFF7D6FC281C0121FFF7A7FC29210022201CFFF7CDFC071C281CFCF73FFD281C0121FFF79AFC002F02D10123E37020E07B0702D48D
:403B8000013E002EDCD1FA26F600281CFCF722FD01210022201CFFF7B1FC071C281CFCF723FD281C0121FFF77EFC002F01D1E77005E0012F4BD1013E002EE6D147E0201CFC
:403BC00002A9FFF7E2FC002841D1201C02A9FFF779FEC0B200283AD10123237044E001AEA078311CFCF764FD281CFCF7FDFCF378AA2B2CD1B2789B3B1340012B27D1FA26CC
:403C0000A578F600281CFCF7E5FC00223721201CFFF774FC281C0121FFF745FC80222921D205201CFFF76AFC071C281CFCF7DCFC281C0121FFF737FC002F02D0013E002E16
:403C4000E0D1201C02A9FFF7A0FC002802D00120404209E00125201CE57002A9FFF732FEC0B20028F3D1257007B0F0BD50C30000DC50000010B5094A8300D3185C68237891
:403C8000002B02D00120404206E0FCF70BFD0028F8D0201CFFF70CFF10BDC0464411002070B5164D8000164A281844688818072822D81E1C00F060FD0A2020200404201ABE
:403CC000201C00211422FEF74CFD15E02378002B04D0A3883381A36873600DE0201CFFF7E7FE0028F5D00120404206E0201CFEF793FE2B68013B2B60002070BD441100204F
:403D000014FCFFFFF0B51C1C031C8DB01833051C0F1C0B920A93FCF7F7FC0022061C211C281C131CFEF748F80790002869D01022B3B20893330C00260993344B211C1B68F2
:403D40000192089A00900392099A029604929B68281C9C463A1C0B9BE047B04249D0201CFFF76FF8201CFFF768F8AA8B311CA068FEF7F7FC07990A98FDF7E2FC071C0122CA
:403D8000201C391CFFF771F8A36800960A93089B0A980193099B1E490293079A1023FEF728F8089B0A981A490193099B0B310B9A2030009602931023FEF71BF8201CFFF7CA
:403DC0003CF8311CAA8BA068FEF7CBFC7E1C2A1C34321278F31B934209DA311C201C0122FFF732F8201CFFF764F80136EFE7002009E0281C211C079A0123FDF79EFD02204C
:403E000000E0012040420DB0F0BDC046EC0000204851000030B5041C0D1C8BB0211C06A8FEF7EEFF04AB0093201C06A92A1C05ABFEF7B8F9002802D10124644217E0059891
:403E4000FEF7C9FC0028F7D0049B201C0093002306A901930293059AFDF79EFE0028EBD1201C0599049A06ABFFF74CFFC41706A8FEF7DBFF201C0BB030BDF0B5051C0F1C86
:403E80008BB0291C06A8141C1E1CFEF7B9FF05AB0093281C06A93A1C04ABFEF783F9002804D106A8FEF7C1FF01202AE0059B281C00930023049A0193029306A9FDF76CFE18
:403EC0000125021E19D0701E072815D800F054FC040714091414140ED37A23700CE00E3200E01632101CFEF752FD04E01232101CFEF764FD00042060002506A8FEF795FF09
:403F0000281C0BB0F0BDF0B5041C0D1C8BB0211C06A8171C1E1CFEF773FF05AB0093201C06A92A1C04ABFEF73DF9002804D106A8FEF77BFF01203BE0059B201C00930023B7
:403F400006A901930293049AFDF726FE0125041E2AD0AE420AD1397810230A1CC07A9A43184201D00B431A1CE27219E039680D0C042E0AD0082E0FD0022E11D10E3089B223
:403F8000FEF718FD201C103007E0163089B2FEF711FD201C183000E01230291CFEF70AFD06A8FEF74EFF002506A8FEF73EFF281C0BB0F0BDF0B593B00B9318AB1B78051C8B
:403FC0000C9319AB1B8806910E931AAB1B880A9204931BAB1B880F931CAB1B781193FEF75DFD031E00DA69E12B1C002255331A70FEF7D2FE041E00D15EE1B24B049A1B8A99
:40400000934200D258E1002A00D155E10B9B002B01D1FF330B930A9B002B01D13F330A93049BA94EDB000D930F9B08360393012307960993079B0F9A5B681093079B1E7876
:40404000039B934201D1002B06D1202E09D00E9B05930123039307E00E9B0593202E03D100E0039600230593059B04995801FEF773FC069B039A0C999F1A3F1A381C00F026
:4040800015FC0D997043FEF767FC40000C99381A00F00CFC071C301C0D997843FEF75CFC099B0890002B2ED1884B9F422EDC0021049A201CFEF755FBE923082223708449F8
:4040C000E01CFEF7A4FB201C04990B30FEF772FC30226B46201C9B181B780E3063730399FEF768FC0223201C237411300599FEF761FC784F069BBB4212D8201C0699133095
:40410000FEF758FC11E0109B9F42D0DA079A099B083A07920022013B09920133C7D089E7201C06992030FEF73DFCF823201C637518300A99FEF73EFC201C0B991A30FEF7FA
:4041400039FC201C29691C30FEF72CFC202E20D08022201C631DDA77573AE31DDA7727305D49FEF71FFC6B46201C198C1630FEF721FC201C54492B3010310B22FEF747FB34
:40418000201C564936300C2E00D055490822FEF73EFB201CFF30FF305249FEF70BFC0021281C221C0B1CFEF732FD002853DB202E07D1281C0621221C0023FEF728FD002815
:4041C00049DB0021049A201CFEF7CBFA089B281C5B000793022303990093079A231CFEF7F3FC002837DBF823237007336370A3700C2E00D0E370281C0399221C0223FEF755
:4042000006FD002827DB039A089B94466344191C281C221C0223FEF7FAFC00281BDB201C0021049AFEF79DFA059B002B17D0039A079B944663440393059B0499580100F096
:40424000A5FA0123021C0093281C0399231CFEF7BBFC002803DA201CFEF7B6FD2CE02B69002B24D0119B002B21D00021281C221C0B1CFEF72FFC002819D1E1235B00E15CF7
:404280001A1CC23BFF3B0C2E08D0102E05D106980333B84202D9023300E00B23994206D00021A354281C221C0B1CFEF796FC201CFEF78AFD002301E001235B42181C13B012
:4042C000F0BDC0465811002060510000F40F0000EE510000FFFF000067452301DC510000E551000055AA0000F0B5041C8DB009AD00210C22281CFEF734FA201C00F01AFAB1
:40430000201C291CFEF79EFC2369002B01D063696B60696800291FD02B886A8807932E8900251C2084460E4FE800BC446346C358994201D90135F4E738181C300579C08813
:404340000095019000200390013004900296201C079BFFF72FFE01E0012040420DB0F0BD60510000F0B5051C8BB00E1E2ED0FEF795FB002827DB281C00F0DCF9B36807ACB6
:40438000002B04D1281C211CFEF75CFC02E0221C83CB83C22B69002B04D06B6962689A4200D9636031786288238800917188281C019121890291B1880391B17904916168A3
:4043C000FFF7F8FD04E00120404201E0FFF78CFF0BB0F0BD07B5031C42680020824208D09968009048681968DB68FEF7A7FB431E98410EBDF0B5041C002597B0069101686E
:404400000820235E8E68AB4200D0B5E060684B68984204D301235B4223810025ACE01B1A05929A4200D90593059B002BF2D00D68002D00D1A0E0311C0EA8FEF7E1FC0AA829
:40444000311CFEF7DDFC27680020BB681390019318330893019B03905B6A099301235B4212930AAB1493059B0493201C0EA9FDF70DFB00286ED13B69099A01335343616879
:40448000049A5B1A02929A4200D90293019B08989E8B013E314007917969FDF751F9019B616834331B785A1E019BDB8BD9400B1C1340C618019B079A9B8B9D1A029A954267
:4044C00000D9151C9D4211D00AA8311C0022FEF7BBFC0AA8FEF7D4FC00283BD10C99079B0698C9182A1CFEF7BEFB11E0139B129A9A1896420AD012A8FFF76CFF00282BD1D2
:4045000001231393069B1296159301E001331393069B01365B190693029B5B1B0293049B5B1B0493039B5B19039363685D1900230793029B6560002BBCD1049B002B94D1DD
:4045400012A8FFF747FF45424541039B6D422B401D1C02E0039D00E00025059B9D4205D00822A35E002B01D1073B23810EA8FEF75CFC0AA8FEF759FC281C17B0F0BDF0B502
:40458000041C036889B09D6804A8291C0193FEF737FC019B60685B6898422DD26F6A2668391C381800F0F2F87368391C0290F81800F0ECF8029B04A9C31A0393029B326805
:4045C000013B281CFDF794F9071C04A93A1C0123281CFDF78DF9039B021C04A9281CFDF7ACF9281C04A93A1CFDF73AF9029B776133610023F3830DE0984212D901386060B1
:4046000004A9201CFDF740FF6368051C01336360002808D1636800250293029A019B5A6001E001256D42019804A9FDF7FBFE04A8FEF7FBFB281C09B0F0BD30B585B06B460E
:40464000DD1D297003A9FEF7F7FD041E02D10120404209E0FEF7BDFE0328F8D1201C03992A1C0123FFF74FFC05B030BD73B56B46FF26DC1C01A92670FEF7DEFD051E0CD0C3
:40468000FEF7A7FE0123184207D0281C0199221CFFF7F3FB002800D02670207876BD0000F0B585B000282BD0002A29D00F1C00210B1C141C061CFEF70DFA002820DB201C72
:4046C000FF30FF30FEF77AF9194B984218D12378E92B1BD0EB2B16D0201CC730FF30FEF756F9051C201CCB30FF30FEF750F901A9041C301CFEF7A6FA002C01D0002D0CD11A
:404700000120404212E0A378902BE5D10024251C281C002F0AD03C6008E06019000AFF2100F034F8029B9842EAD8F1E705B0F0BD55AA0000F7B5051CFEF76FFA071CFEF7AE
:404740002BFB0C4B061C1B8AFF24BB420CD3002F0AD0281C01A9321CFFF7A2FF431C03D00024019B28616B61301CFEF72DFB60B2FEBDC0465811002002B471464908490007
:40478000095C49008E4402BC7047C046002243088B4274D303098B425FD3030A8B4244D3030B8B4228D3030C8B420DD3FF22090212BA030C8B4202D31212090265D0030BD4
:4047C0008B4219D300E0090AC30B8B4201D3CB03C01A5241830B8B4201D38B03C01A5241430B8B4201D34B03C01A5241030B8B4201D30B03C01A5241C30A8B4201D3CB022A
:40480000C01A5241830A8B4201D38B02C01A5241430A8B4201D34B02C01A5241030A8B4201D30B02C01A5241CDD2C3098B4201D3CB01C01A524183098B4201D38B01C01A3B
:40484000524143098B4201D34B01C01A524103098B4201D30B01C01A5241C3088B4201D3CB00C01A524183088B4201D38B00C01A524143088B4201D34B00C01A5241411A12
:4048800000D20146524110467047FFE701B5002000F0FCF802BDC0460029F7D003B5FFF775FF0EBC4243891A1847C04603460B437FD4002243088B4274D303098B425FD3FB
:4048C000030A8B4244D3030B8B4228D3030C8B420DD3FF22090212BA030C8B4202D31212090265D0030B8B4219D300E0090AC30B8B4201D3CB03C01A5241830B8B4201D395
:404900008B03C01A5241430B8B4201D34B03C01A5241030B8B4201D30B03C01A5241C30A8B4201D3CB02C01A5241830A8B4201D38B02C01A5241430A8B4201D34B02C01AC3
:404940005241030A8B4201D30B02C01A5241CDD2C3098B4201D3CB01C01A524183098B4201D38B01C01A524143098B4201D34B01C01A524103098B4201D30B01C01A524145
:40498000C3088B4201D3CB00C01A524183088B4201D38B00C01A524143088B4201D34B00C01A5241411A00D201465241104670475DE0CA0F00D04942031000D3404253400B
:4049C00000229C4603098B422DD3030A8B4212D3FC22890112BA030A8B420CD3890192118B4208D3890192118B4204D389013AD0921100E08909C3098B4201D3CB01C01A8C
:404A0000524183098B4201D38B01C01A524143098B4201D34B01C01A524103098B4201D30B01C01A5241C3088B4201D3CB00C01A524183088B4201D38B00C01A5241D9D27E
:404A400043088B4201D34B00C01A5241411A00D20146634652415B10104601D34042002B00D54942704763465B1000D3404201B5002000F00BF802BD0029F8D003B5FFF7F9
:404A800015FF0EBC4243891A1847C0467047C0460E4B70B500251E1C0D4CE41AA410A54204D0AB00F35898470135F8E700F0A4FB084B00251E1C084CE41AA410A54204D03F
:404AC000AB00F35898470135F8E770BD0452000004520000045200000C520000002310B5934203D0CC5CC4540133F9E710BD031C8218934202D019700133FAE770470000D9
:404B000000000000537465702300000053442043415244204E414D450000000053442063617264206E616D653A0000004661696C656420746F206765740000005344206396
:404B4000617264206E616D65000000005344204341524420464F524D415400005344206361726420666F726D617400005375636365656465640000004661696C65640000BF
:404B80004449524543544F525900000044697200224469722220637265617465640000004661696C656420746F20637265617465000000006469726563746F727900000015
:404BC00046494C45000000007700000046696C6520000000776173206F70656E656400003031323334355656534B0000223031323334355656534B2200000000777269749C
:404C000074656E20746F2066696C65004661696C656420746F207772697465006461746120746F2066696C650000000046696C652077617320636C6F736564004661696C79
:404C4000656420746F20636C6F736500434F5059000000005C4469725C66696C65312E747874000046696C652077617320000000636F7069656420746F20224449522200FC
:404C80004661696C656420746F20636F707900004578616D706C652070726F6A65637400636F6D706C6574656400000000300F40800200330F40000100400F40000400001A
:404CC00080320F40D84E00008000000001000F405C300F4034310F4011320F4045330F4006400F4007410F4002600F40820F001001DC044105D40708088109040A400C0160
:404D00000DDC0E40112013D0148815201661178F18E219111A081B221C4120042121234E244725D02698270C284029082C412DDC303F31F032C0350F360838023A083B0266
:404D40003E415409580459045B045F018134829F84C0853F86088740888089148D348E609134947F954B96809730981F99089A209B759CC09E029F34A0C0A180A201A4C04A
:404D8000A514A604A720A920AAFFAB02AC90AD80AE40B378B507B6FFB780B988BB30BE40D804D904DF010010014604180506070209140A010E210F04100812211302154413
:404DC0001721181019401B021F4020042221230425142618273629242B492D042F4A32213304348036183701381039443A013C103D403E013F06596963018D048F40C0FF5B
:404E0000C2E7C4FFCAFFCCF7CEFFD60FD80804080633082E0A1018201A181E0128182A25343836073A205602572858045B045F010014010102010404070409140A420E069D
:404E40001088110412021720185019011A021B101E061F10211023113201331438043920404442024304490A4A08508051A05202530861A0632067206C0C6D456E4176012B
:404E80007701808486028B108E01900494089544960197019B349C809D0B9E019F01A114A208A408A708C06FC2CFC44FCC07CE06D00FD204D84EE210E680011054105C8002
:404EC000C040D440D620851088108C8091109C80A410E41001011001030000000449081000370400030000000000030710540C0820480C2200003000000001000300000005
:404F000003000000000048000200400701383C4000200000000011446302400001BEFDBC3FFFFFFF2200F008040000004000000004040404000000010000C00040011011C9
:404F4000C00100114001400100000000000000000000000000000000030405060708090A0B0C0E0F101112131415161718191B1C1D1E1F2021222325262728292A2B2E2F1C
:404F80003031323334350000FF3F00001000000010000000FFFF01002000000020000000FFFF07002000000040000000FFFF1F002000000080000000FFFF3F004000000086
:404FC00080000000FFFFFF034000000000200000FF0F000002100000FF7F000002200000FFFF000004200000FFFF030008200000FFFF070010200000FFBF0F00103F000075
:40500000FF7F1F00203F0000FFFF3E00403F0000FFFF7D00803F0000FFFF7D00FF3F0000411C0000F513000007140000000000002E2E0000AC50000008000100AE500000E7
:405040000A000100B150000014010001B350000016010001B650000015000101B850000017000101BB50000018000100BE5000001A000100C25000001A000100C650000025
:405080001C010001C95000001E010001CD5000001E010001D15000001D000101D45000001F000101D85000001F000101720072620077007762006100616200722B00722B9A
:4050C000620072622B00772B00772B620077622B00612B00612B620061622B000A00000064000000E803000010270000000A0C0D0F14191E23282D32373C415080969800D4
:4051000040420F00A086010010270000E8030000640000000A00000001000000400000000095000041340000D13400009937000019360000A13C0000753C0000C93400002D
:40514000353400006D6D63002E202020202020202020202E2E20202020202020202000000C0000000000000010000000F50F00004E4F204E414D4520202020000001000020
:4051800001002000000200000100400000080000010080000010000001000001004000000200000100800000020000010000040004000002000008000800000200001000FE
:4051C00010000002A0FE1F002000000240FD3F004000000200F5FF00800000024641543132202020004641543136202020004D5357494E342E310000F8B5C046F8BC08BCFE
:405200009E4670470D0200005D070000F8B5C046F8BC08BC9E467047E501000030520000C800002030000000E8100000000000000000000046696C652E7478740000000014
:405240000000C05D80BB000030000000006CDC0204040400205000002D3400000000000000000000000000000000000000000000000000000000000000000000000000007F
:4052800000000000000000000000000000000000000000000000000000000000000000000000000000000000000000000000000000000000000000000000000000000000EE
:4052C00000000000000000000000000000000000000000000000000000000000000000000000000000000000000000000000000000000000000000000000000000000000AE
:40530000000000000000000000000000000000000000000000000000000000000000000000000000000000000000000000000000000000000000000000000000000000006D
:40534000000000000000000000000000000000000000000000000000000000000000000000000000000000000000000000000000000000000000000000000000000000002D
:020000040003F7
:0200000490303A
:0200000090610D
:0200000490402A
:4000000000000000000000000000000000000000000000000000000000000000000000000000000000000000000000000000000000000000000000000000000000000000C0
:400040000000000000000000000000000000000000000000000000000000000000000000000000000000000000000000000000000000000000000000000000000000000080
:0200000490501A
:0C0000000002131711A300011334A20426
:0200000490600A
:0100000001FE
:00000001FF